:03000000020E40AD
:0C0E4000787FE4F6D8FD75813A020C5171
:100D2700415F636C6173732054656D703A0025648D
:100D37002E2564204300425F636C61737320546502
:100D47006D703A00435F636C6173732054656D7017
:020D57003A0060
:080DB5008FA0D2B17F057E0082
:100DBD00E4FDFCC3ED9FEC9E5015E4FBFA0BBB006C
:0F0DCD00010ABA04F8BBFBF50DBD00010C80E470
:010DDC0022F4
:100E0400E4FFFE758901758CFC758A66D28C308D81
:100E1400FDC28CC28D0FBF00010EBE13E6BF89E375
:010E240022AB
:080E4C00D2B0120DB5C2B122B3
:100CEA00120D598F227E007C017DF4120B751C7D3A
:100CFA00FF120B878E238F247C007D0A120B878FAD
:100D0A0025AE23AF247C007D0A120B878D267F0136
:050D1A00120D1F7F8097
:080D1F00C2B0120DB5C2B122F1
:100E25007F38120D1F7F0C120D1F7F06120D1F7FBD
:0B0E350001120D1F7F027E00020DBDA8
:060D8A007B007A007909EC
:100D90008B278A288929AB27AA28A929120B5C60EE
:100DA000130529E5297002052814F9120B5CFF12BE
:050DB0000E4C80E22260
:100D5900EF139290EFC313139291EF1313543F13B0
:100D69009292D2947F017E00120DBDC294D2931249
:100D79000DBDC2932096FDD295858008C295AF0816
:010D89002247
:100C5100120E25E4FF120CEA7BFF7A0D7927120DA3
:100C6100907FC0120D1F752AFF752B0D752C3585D0
:100C7100252D85262E7B007A00790912085C120D3C
:100C81008A120E047F01120CEA7BFF7A0D793D1264
:100C91000D907FC0120D1F752AFF752B0D752C3518
:100CA10085252D85262E7B007A00790912085C1294
:100CB1000D8A120E047F02120CEA7BFF7A0D794B2A
:100CC100120D907FC0120D1F752AFF752B0D752C0B
:100CD1003585252D85262E7B007A00790912085C41
:090CE100120D8A120E04020C54DB
:100B5C00BB010689828A83E0225002E722BBFE0297
:090B6C00E32289828A83E49322CA
:100B7500EF8DF0A4A8F0CF8CF0A428CE8DF0A42E94
:020B8500FE224E
:100B8700BC000BBE0029EF8DF084FFADF022E4CC52
:100B9700F875F008EF2FFFEE33FEEC33FCEE9DEC1B
:100BA700984005FCEE9DFE0FD5F0E9E4CEFD22ED61
:100BB700F8F5F0EE8420D21CFEADF075F008EF2FAB
:100BC700FFED33FD4007985006D5F0F222C398FD9C
:050BD7000FD5F0EA2239
:10080000E536242AF8E60536227827300702782ACA
:10081000E475F001120C1B020B5C2000EB7F2ED262
:10082000008018EF540F2490D43440D4FF30040BD0
:10083000EF24BFB41A0050032461FFE537600215AE
:1008400037053AE53A7002053930070D7827E47527
:10085000F001120C1BEF020C09020DDD7403D2072C
:100860008003E4C207F5368B278A288929E4F53707
:10087000F539F53AE53760077F2012083B80F575BA
:1008800038FFC201C200C202C203C205C206C208CA
:10089000120809FF700D3007057F0012084CAF3AAF
:1008A000AE3922B4255FC2D5C204120809FF24D094
:1008B000B40A00501A75F00A783730D50508B6FF2B
:1008C0000106C6A426F620D5047002D20380D924DE
:1008D000CFB41A00EF5004C2E5D204020A4CD20190
:1008E00080C6D20080C0D20280BCD2D580BAD205E8
:1008F00080B47F2012083B2002077401B537004006
:10090000F1120800FF12083B020874D208D20680D8
:1009100095120800FB120800FA120800F94A4B7001
:1009200006791D7A0B7BFF20022EE537602A7E00B8
:100930008E82758300120BDC60060EEE653870F057
:10094000C2D5EBC0E0EAC0E0E9C0E0EE120A93D005
:10095000E0F9D0E0FAD0E0FB120B5CFF60AAEBC03C
:10096000E0EAC0E0E9C0E012083BD0E02401F9D0A1
:10097000E03400FAD0E0FBE5380460DCD538D980FB
:10098000877BFF7A0A798FD202809C791080027966
:1009900008C206C2088008D2D5790A8004790AC242
:1009A000D5E538047002F538E4FAFDFEFF120800C0
:1009B000FC7B08200113120800FD7B1030000A1296
:1009C0000800FE120800FF7B20EC3382D592D55040
:1009D00013C3E43000069FFFE49EFEE42001039D64
:1009E000FDE49CFCE4CBF8C201EC700CCFCECDCC86
:1009F000E824F8F870F38017C3EF33FFEE33FEED11
:100A000033FDEC33FCEB33FB994002FB0FD8E9EBF1
:100A1000300105F8D0E0C448B201C0E00AEC4D4E08
:100A20004F78207B0070C2EAB5380040BCC0E012AD
:100A30000A95D0F0D0E0200104C4C0E0C4B201C0E7
:100A4000F0120824D0F0D5F0EB020874120C2B0938
:100A50001153098B5808E24C08DE42098F4F099761
:0F0A60004409974908F743099D550981460981C3
:100A6F00450981470B3D5008E62D08EA2E090D2B4D
:100A7F0008EE23090B200B262A08A64800000905BB
:100A8F003F3F3F00790AA2D5200314300509B91062
:100A9F00020404B9080104A2D52006025001042063
:100AAF0002689202B537005034C0E07F203003193E
:100ABF007F30A20272067205500F120AECC202C2F8
:100ACF0006C205C2087F30800F300503E9C0E0126F
:100ADF00083B300503D0E0F9D0E0B537CC3005172F
:100AEF007F30B9100C12083B7F583004077F788095
:100AFF0003B9080312083B3002057F2D02083B7F24
:100B0F00202008F87F2B2006F322920280CF286E38
:100B1F00756C6C2900D2011208003001F8C20178FF
:100B2F003730D50108F60208A62D50434958120850
:100B3F00002403B405004001E4900B389312082CF5
:0D0B4F00743A12082CD20375370402098B8A
:100BDC00BB010CE58229F582E5833AF583E02250CE
:100BEC0006E92582F8E622BBFE06E92582F8E22218
:0D0BFC00E58229F582E5833AF583E4932232
:100C0900BB010689828A83F0225002F722BBFE01CA
:020C1900F322C4
:100C1B00FAE6FB0808E6F925F0F618E6CA3AF622DA
:100C2B00D083D082F8E4937012740193700DA3A358
:100C3B0093F8740193F5828883E47374029368606C
:060C4B00EFA3A3A380DF6C
:100DDD00EFB40A07740D120DE8740A309811A89932
:100DED00B8130CC2983098FDA899C298B811F63076
:070DFD0099FDC299F599224E
:00000001FF
