:03000000020DA34B
:0C0DA300787FE4F6D8FD75813A020C510F
:0E0D950054656D703A0025642E2564204300DD
:080D06008FA0D2B17F057E0031
:100D0E00E4FDFCC3ED9FEC9E5015E4FBFA0BBB001B
:0F0D1E00010ABA04F8BBFBF50DBD00010C80E41F
:010D2D0022A3
:080DAF00D2B0120D06C2B12200
:080DB700C2B0120D06C2B12208
:100D7A007F38120DB77F0C120DB77F06120DB77FA1
:0B0D8A0001120DB77F027E00020D0E6B
:100D55008B278A288929AB27AA28A929120B5C6029
:100D6500130529E5297002052814F9120B5CFF12F9
:050D75000DAF80E22239
:100CD500EF139290EFC313139291EF1313543F1335
:100CE5009292D2947F017E00120D0EC294D293127D
:100CF5000D0EC2932096FDD295858008C295AF084A
:010D050022CB
:100C5100120D7A7F80120DB77BFF7A0D7995120DF7
:010C6100553D
:100C6200E4FF120CD58F227E007C017DF4120B75FD
:100C72001C7DFF120B878E238F247C007D0A120BB2
:100C8200878F25AE23AF247C007D0A120B878D2629
:100C9200752AFF752B0D752C9B85252D85262E7BA0
:100CA200007A00790912085C7FC0120DB77B007AC6
:100CB200007909120D55E525C3941E4004D2B28075
:100CC20009E525C3941C5002C2B27F647E00120D56
:010CD2000E13
:020CD300808D12
:100B5C00BB010689828A83E0225002E722BBFE0297
:090B6C00E32289828A83E49322CA
:100B7500EF8DF0A4A8F0CF8CF0A428CE8DF0A42E94
:020B8500FE224E
:100B8700BC000BBE0029EF8DF084FFADF022E4CC52
:100B9700F875F008EF2FFFEE33FEEC33FCEE9DEC1B
:100BA700984005FCEE9DFE0FD5F0E9E4CEFD22ED61
:100BB700F8F5F0EE8420D21CFEADF075F008EF2FAB
:100BC700FFED33FD4007985006D5F0F222C398FD9C
:050BD7000FD5F0EA2239
:10080000E536242AF8E60536227827300702782ACA
:10081000E475F001120C1B020B5C2000EB7F2ED262
:10082000008018EF540F2490D43440D4FF30040BD0
:10083000EF24BFB41A0050032461FFE537600215AE
:1008400037053AE53A7002053930070D7827E47527
:10085000F001120C1BEF020C09020D2E7403D207DB
:100860008003E4C207F5368B278A288929E4F53707
:10087000F539F53AE53760077F2012083B80F575BA
:1008800038FFC201C200C202C203C205C206C208CA
:10089000120809FF700D3007057F0012084CAF3AAF
:1008A000AE3922B4255FC2D5C204120809FF24D094
:1008B000B40A00501A75F00A783730D50508B6FF2B
:1008C0000106C6A426F620D5047002D20380D924DE
:1008D000CFB41A00EF5004C2E5D204020A4CD20190
:1008E00080C6D20080C0D20280BCD2D580BAD205E8
:1008F00080B47F2012083B2002077401B537004006
:10090000F1120800FF12083B020874D208D20680D8
:1009100095120800FB120800FA120800F94A4B7001
:1009200006791D7A0B7BFF20022EE537602A7E00B8
:100930008E82758300120BDC60060EEE653870F057
:10094000C2D5EBC0E0EAC0E0E9C0E0EE120A93D005
:10095000E0F9D0E0FAD0E0FB120B5CFF60AAEBC03C
:10096000E0EAC0E0E9C0E012083BD0E02401F9D0A1
:10097000E03400FAD0E0FBE5380460DCD538D980FB
:10098000877BFF7A0A798FD202809C791080027966
:1009900008C206C2088008D2D5790A8004790AC242
:1009A000D5E538047002F538E4FAFDFEFF120800C0
:1009B000FC7B08200113120800FD7B1030000A1296
:1009C0000800FE120800FF7B20EC3382D592D55040
:1009D00013C3E43000069FFFE49EFEE42001039D64
:1009E000FDE49CFCE4CBF8C201EC700CCFCECDCC86
:1009F000E824F8F870F38017C3EF33FFEE33FEED11
:100A000033FDEC33FCEB33FB994002FB0FD8E9EBF1
:100A1000300105F8D0E0C448B201C0E00AEC4D4E08
:100A20004F78207B0070C2EAB5380040BCC0E012AD
:100A30000A95D0F0D0E0200104C4C0E0C4B201C0E7
:100A4000F0120824D0F0D5F0EB020874120C2B0938
:100A50001153098B5808E24C08DE42098F4F099761
:0F0A60004409974908F743099D550981460981C3
:100A6F00450981470B3D5008E62D08EA2E090D2B4D
:100A7F0008EE23090B200B262A08A64800000905BB
:100A8F003F3F3F00790AA2D5200314300509B91062
:100A9F00020404B9080104A2D52006025001042063
:100AAF0002689202B537005034C0E07F203003193E
:100ABF007F30A20272067205500F120AECC202C2F8
:100ACF0006C205C2087F30800F300503E9C0E0126F
:100ADF00083B300503D0E0F9D0E0B537CC3005172F
:100AEF007F30B9100C12083B7F583004077F788095
:100AFF0003B9080312083B3002057F2D02083B7F24
:100B0F00202008F87F2B2006F322920280CF286E38
:100B1F00756C6C2900D2011208003001F8C20178FF
:100B2F003730D50108F60208A62D50434958120850
:100B3F00002403B405004001E4900B389312082CF5
:0D0B4F00743A12082CD20375370402098B8A
:100BDC00BB010CE58229F582E5833AF583E02250CE
:100BEC0006E92582F8E622BBFE06E92582F8E22218
:0D0BFC00E58229F582E5833AF583E4932232
:100C0900BB010689828A83F0225002F722BBFE01CA
:020C1900F322C4
:100C1B00FAE6FB0808E6F925F0F618E6CA3AF622DA
:100C2B00D083D082F8E4937012740193700DA3A358
:100C3B0093F8740193F5828883E47374029368606C
:060C4B00EFA3A3A380DF6C
:100D2E00EFB40A07740D120D39740A309811A89990
:100D3E00B8130CC2983098FDA899C298B811F63025
:070D4E0099FDC299F59922FD
:00000001FF
