:0300000002086B88
:0C086B00787FE4F6D8FD758107020800D4
:080843008FA0D2917F327E00EC
:10084B00E4FDFCD3ED9FEC9E5015E4FBFA0BBB00D3
:0F085B00010ABA04F8BBFBF50DBD00010C80E4E7
:01086A00226B
:08087700D290120843C2912245
:08087F00C290120843C291224D
:100800007F3812087F7F0212087F7F0112087F7FE6
:100810000C12087F7F0612087F7F8012087F7F57A7
:100820001208777F451208777F4C1208777F4312B2
:1008300008777F4F1208777F4D1208777F4512089F
:030840007780FEC0
:00000001FF
