:0300000002091CD6
:0C091C00787FE4F6D8FD75812C02096399
:100A02005345542050415353574F524428372044A2
:100A12004947495453290050415353574F52442098
:100A220049532053455400454E544552205041539A
:100A320053574F5244004C4544204F4E0057524F9B
:100A42004E472050415353574F5244005359535429
:0A0A5200454D204C4F434B45440036
:100AD600101D3132330034353600373839002A30AC
:020AE6002300EB
:080A5C008F90D2B47F027E00EE
:100A6400E4FDFCC3ED9FEC9E5015E4FBFA0BBB00C8
:0F0A7400010ABA04F8BBFBF50DBD00010C80E4CC
:010A83002250
:080AE900C2B6120A5CC2B4227D
:080AF100D2B6120A5CC2B42265
:100AC2007F38120AE97F0C120AE97F06120AE97FCF
:040AD20001020AE92A
:100A84008B1A8A1B891CAB1AAA1BA91C120AA960FF
:100A940013051CE51C7002051B14F9120AA9FF12A8
:050AA4000AF180E222CE
:1009A800E4FD7580F0A8057401088002C333D8FC03
:1009B800F45280E4FC7E007410A804088005C33358
:1009C800CE33CED8F9FFAB80EF5B70237E00741076
:1009D800A804088005C333CE33CED8F9FFAB80EF27
:1009E8005B60E9ED25E025E0241D2CF8E6FF220CEC
:0909F800BC03C20DBD04AB7F007D
:010A010022D2
:10080000120AC27F80120AE97BFF7A0A7902120A71
:1008100084E4F508F5091209A8AE09740C2EF8A6AF
:1008200007740C2EF8E6600F7FC0120AE9740C25DD
:1008300009F8E6FF120AF10509E50970020508D377
:100840009406E508940040CE7F01120AE97BFF7A06
:100850000A7919120A847FD07E07120A64E4F50A25
:10086000F50B7F01120AE97BFF7A0A7929120A84C3
:100870007FC0120AE9E4F508F5091209A8741325E6
:1008800009F8A6077F2A120AF10509E50970020591
:1008900008D39406E508940040E07F01E4F508F5EC
:1008A00009AE0974132EF8E6FD740C2EF8E66D609F
:1008B00004E4FF800E0509E5097002050864074598
:1008C0000870DEEF601B7F01120AE97BFF7A0A796C
:1008D00038120A84D2B07F287E23120A64C2B08004
:1008E000FE7F01120AE97BFF7A0A793F120A847FB0
:1008F000D07E07120A64050BE50B7002050AC3944B
:1009000003E50A940050030208627F01120AE97BA2
:0C091000FF7A0A794E120A84C2B080FE01
:10092800020800E493A3F8E493A34003F68001F2DD
:1009380008DFF48029E493A3F85407240CC8C333D0
:10094800C4540F4420C8834004F456800146F6DF9F
:10095800E4800B0102040810204080900AD6E47E4F
:10096800019360BCA3FF543F30E509541FFEE49394
:10097800A360010ECF54C025E060A840B8E493A35B
:10098800FAE493A3F8E493A3C8C582C8CAC583CA86
:10099800F0A3C8C582C8CAC583CADFE9DEE780BE3E
:010AE800000D
:100AA900BB010689828A83E0225002E722BBFE024B
:090AB900E32289828A83E493227E
:00000001FF
