:03000000020800F3
:0C080000787FE4F6D8FD758111020847EE
:0C08C5000A083F065B4F666D7D077F6FE1
:10088C00EF4E60197C007D73D3ED9400EC94004026
:0D089C00EFED1D70011CEF1F70EE1E80EBD4
:0108A900222C
:1008AA00E4FB74082BF8E6F5A07FF47E0112088CAD
:0B08BA000BEBD3940940EBE4FB80E75C
:10080C000208AAE493A3F8E493A34003F68001F250
:10081C0008DFF48029E493A3F85407240CC8C333ED
:10082C00C4540F4420C8834004F456800146F6DFBC
:10083C00E4800B01020408102040809008C5E47E7F
:10084C00019360BCA3FF543F30E509541FFEE493B1
:10085C00A360010ECF54C025E060A840B8E493A378
:10086C00FAE493A3F8E493A3C8C582C8CAC583CAA3
:10087C00F0A3C8C582C8CAC583CADFE9DEE780BE5B
:0108D1000026
:00000001FF
