:030000000208D61D
:0C08D600787FE4F6D8FD75812702091D2B
:1009BD005345542050415353574F524400454E54C4
:1009CD0045522050415353574F52440041434345E4
:1009DD005353204752414E5445440057524F4E47B2
:1009ED002050415353574F52440053595354454D82
:0809FD00204C4F434B45440020
:0E0A91000C1C3132333435363738392A3023D5
:080A05008FA0D2B67F057E0030
:100A0D00E4FDFCC3ED9FEC9E5015E4FBFA0BBB001F
:0F0A1D00010ABA04F8BBFBF50DBD00010C80E423
:010A2C0022A7
:0A0A7F002508F8A618E50824C0FFBA
:080A8900C2B7120A05C2B62231
:080AA000D2B7120A05C2B6220A
:100A2D008B198A1A891BAB19AA1AA91B120A5260B3
:100A3D0013051BE51B7002051A14F9120A52FF1259
:050A4D000AA080E22276
:100A6B007F38120A897F0C120A897F06120A897F46
:040A7B0001020A89E1
:10096200E4F97590F0A8017401088002C333D8FC41
:10097200F45290E59020E4107FC87E00120A0DE93F
:1009820075F003A4241C8028E59020E5107FC87E22
:1009920000120A0DE975F003A4241D8013E59020CE
:1009A200E6127FC87E00120A0DE975F003A4241E28
:0A09B200F8E6FF2209B904AA7F004D
:0109BC002218
:10080000120A6B7F80120A897BFF7A0979BD120A6E
:100810002DE4F5081209628F18EF60F8740A120AC5
:100820007FAF18120AA00508E508C3940740E57FCA
:10083000D07E07120A0DE4F5097F01120A897BFFB9
:100840007A0979CA120A2DE4F5081209628F18EFA5
:1008500060F87411120A7F7F2A120AA00508E508C1
:10086000C3940740E57F01E4F50874112508F8E614
:10087000FE740A2508F8E66E6004E4FF80070508A8
:10088000E508B407E5EF601B7F01120A897BFF7A58
:100890000979D9120A2DD2B07F287E23120A0DC2FF
:1008A000B080FE7F01120A897BFF7A0979E8120A7B
:1008B0002D7FD07E07120A0D0509E509C394035068
:1008C000030208397F01120A897BFF7A0979F7123E
:0608D0000A2DC2B080FEFB
:1008E200020800E493A3F8E493A34003F68001F224
:1008F20008DFF48029E493A3F85407240CC8C33317
:10090200C4540F4420C8834004F456800146F6DFE5
:10091200E4800B0102040810204080900A91E47EDA
:10092200019360BCA3FF543F30E509541FFEE493DA
:10093200A360010ECF54C025E060A840B8E493A3A1
:10094200FAE493A3F8E493A3C8C582C8CAC583CACC
:10095200F0A3C8C582C8CAC583CADFE9DEE780BE84
:010A9F000056
:100A5200BB010689828A83E0225002E722BBFE02A2
:090A6200E32289828A83E49322D5
:00000001FF
