:03000000020800F3
:0C080000787FE4F6D8FD758111020847EE
:0C0907000A083F065B4F666D7D077F6F9E
:1008AF00E4FDFCC3ED9FEC9E5015E4FBFA0BBB007F
:0F08BF00010ABA04F8BBFBF50DBD00010C80E483
:0108CE002207
:1008CF00EF75F00A84FEEF75F00A84AFF074082E0E
:0B08DF00F8E6F59074082FF8E6F5B07D
:0108EA0022EB
:10088C008F82758300C3E58394004016AF821208F3
:10089C00CF7FE87E031208AFE582158270E71583DF
:0208AC0080E3E7
:0108AE002227
:1008EB00D2A07F1E12088CC2A0D2A17F1912088C35
:0C08FB00C2A1D2A27F0512088CC2A2226A
:050914001208EB80FB5E
:10080C00020914E493A3F8E493A34003F68001F2E5
:10081C0008DFF48029E493A3F85407240CC8C333ED
:10082C00C4540F4420C8834004F456800146F6DFBC
:10083C00E4800B0102040810204080900907E47E3C
:10084C00019360BCA3FF543F30E509541FFEE493B1
:10085C00A360010ECF54C025E060A840B8E493A378
:10086C00FAE493A3F8E493A3C8C582C8CAC583CAA3
:10087C00F0A3C8C582C8CAC583CADFE9DEE780BE5B
:0109130000E3
:00000001FF
