:0300000002091CD6
:0C091C00787FE4F6D8FD75812C02096399
:1009A8005345542050415353574F524428372044FD
:1009B8004947495453290050415353574F524420F3
:1009C80049532053455400454E54455220504153F5
:1009D80053574F524400444F4F52204F50454E00FA
:1009E80057524F4E472050415353574F524400538C
:0D09F800595354454D204C4F434B4544008E
:100AD900101D3132334134353642373839432A30E3
:020AE9002344A4
:080A5F008FA0D2B17F027E00DE
:100A6700E4FDFCC3ED9FEC9E5015E4FBFA0BBB00C5
:0F0A7700010ABA04F8BBFBF50DBD00010C80E4C9
:010A8600224D
:080AEC00C2B0120A5FC2B12280
:080AF400D2B0120A5FC2B12268
:100AC5007F38120AEC7F0C120AEC7F06120AEC7FC3
:040AD50001020AEC24
:100A87008B1A8A1B891CAB1AAA1BA91C120AAC60F9
:100A970013051CE51C7002051B14F9120AACFF12A2
:050AA7000AF480E222C8
:100A0500E4FD7590F0A8057401088002C333D8FC95
:100A1500F45290E4FC7E007410A804088005C333EA
:100A2500CE33CED8F9FFAB90EF5B70237E00741008
:100A3500A804088005C333CE33CED8F9FFAB90EFB9
:100A45005B60E9ED25E025E0241D2CF8E6FF220C8E
:090A5500BC04C20DBD04AB7F001E
:010A5E002275
:10080000120AC57F80120AEC7BFF7A0979A8120AC6
:1008100087E4F508F509120A05AE09740C2EF8A64E
:1008200007740C2EF8E6600F7FC0120AEC740C25DA
:1008300009F8E6FF120AF40509E50970020508D374
:100840009406E508940040CE7F01120AEC7BFF7A03
:100850000979BF120A877FD07E07120A67E4F50A7A
:10086000F50B7F01120AEC7BFF7A0979CF120A8718
:100870007FC0120AECE4F508F509120A0574132585
:1008800009F8A6077F2A120AF40509E5097002058E
:1008900008D39406E508940040E07F01E4F508F5EC
:1008A00009AE0974132EF8E6FD740C2EF8E66D609F
:1008B00004E4FF800E0509E5097002050864074598
:1008C0000870DEEF601B7F01120AEC7BFF7A09796A
:1008D000DE120A87D2B27F287E23120A67C2B28054
:1008E000FE7F01120AEC7BFF7A0979E8120A877F02
:1008F000D07E07120A67050BE50B7002050AC39448
:1009000003E50A940050030208627F01120AEC7B9F
:0C091000FF7A0979F7120A87C2B280FE54
:10092800020800E493A3F8E493A34003F68001F2DD
:1009380008DFF48029E493A3F85407240CC8C333D0
:10094800C4540F4420C8834004F456800146F6DF9F
:10095800E4800B0102040810204080900AD9E47E4C
:10096800019360BCA3FF543F30E509541FFEE49394
:10097800A360010ECF54C025E060A840B8E493A35B
:10098800FAE493A3F8E493A3C8C582C8CAC583CA86
:10099800F0A3C8C582C8CAC583CADFE9DEE780BE3E
:010AEB00000A
:100AAC00BB010689828A83E0225002E722BBFE0248
:090ABC00E32289828A83E493227B
:00000001FF
