:03000000020800F3
:0C080000787FE4F6D8FD75811A020847E5
:0C0998004B657970616420546573740035
:1009850010083132334134353642373839432A304D
:020995002344F9
:0808E6008FA0D2B17F027E0059
:1008EE00E4FDFCC3ED9FEC9E5015E4FBFA0BBB0040
:0F08FE00010ABA04F8BBFBF50DBD00010C80E444
:01090D0022C7
:0809A400C2B01208E6C2B12244
:0809AC00D2B01208E6C2B1222C
:100971007F381209A47F0C1209A47F061209A47FF3
:04098100010209A4C2
:10090E008B188A19891AAB18AA19A91A12095860D4
:10091E0013051AE51A7002051914F9120958FF1277
:05092E0009AC80E2228B
:10088C00E4FD7590F0A8057401088002C333D8FC10
:10089C00F45290E4FC7E007410A804088005C33365
:1008AC00CE33CED8F9FFAB90EF5B70237E00741083
:1008BC00A804088005C333CE33CED8F9FFAB90EF34
:1008CC005B60E9ED25E025E024082CF8E6FF220C1E
:0908DC00BC04C20DBD04AB7F0099
:0108E50022F0
:100933001209717F801209A47BFF7A097998120941
:100943000E12088CA907E960F87FC01209A4AF0151
:050953001209AC80EC6C
:10080C00020933E493A3F8E493A34003F68001F2C6
:10081C0008DFF48029E493A3F85407240CC8C333ED
:10082C00C4540F4420C8834004F456800146F6DFBC
:10083C00E4800B0102040810204080900985E47EBE
:10084C00019360BCA3FF543F30E509541FFEE493B1
:10085C00A360010ECF54C025E060A840B8E493A378
:10086C00FAE493A3F8E493A3C8C582C8CAC583CAA3
:10087C00F0A3C8C582C8CAC583CADFE9DEE780BE5B
:01099700005F
:10095800BB010689828A83E0225002E722BBFE029D
:09096800E32289828A83E49322D0
:00000001FF
