:0300000002088271
:0C088200787FE4F6D8FD758107020800BD
:10085000E4FDFCC3ED9FEC9E5015E4FBFA0BBB00DE
:0F086000010ABA04F8BBFCF50DBD00010C80E4E1
:01086F002266
:10087000D2A0C2A17FF47E01120850C2A0D2A10270
:0208800008501E
:10082C00D2A0D2A17FC87E00120850C2A0C2A17F64
:10083C002C0E120850D2A0D2A17FC81E120850C292
:04084C00A0C2A12283
:10080000E4F9D2A220A2187FC87E0012085020A2CC
:100810000EE970047F0180027F00A90730A2FDE984
:0C082000700512087080DD12082C80D8D2
:00000001FF
