:03000000020D04EA
:0C0D0400787FE4F6D8FD758147020BEA09
:100C4D00202057656C636F6D6520212121202000C8
:100C5D00436F756E74696E6720536563733A005305
:0A0C6D0065633A2025752020200061
:100BEA00E4F522F523120CE97BFF7A0C794D120CFD
:100BFA00C47FD07E07120CA47F01120D107BFF7AEE
:100C0A000C795D120CC4D2AFD2A8D2887FC0120D63
:100C1A00107537FF75380C75396C85223A85233B78
:100C2A007B007A00792412085C7B007A007924120E
:100C3A000CC40523E523700205227FE87E03120C0B
:030C4A00A480C9BA
:060C9E00D2B27F027E00CD
:100CA400E4FDFCC3ED9FEC9E5015E4FBFA0BBB0086
:0F0CB400010ABA04F8BBFBF50DBD00010C80E48A
:010CC300220E
:0A0D10008FA0C2B1120C9EC2B222E5
:0A0D1A008FA0D2B1120C9EC2B222CB
:100CE9007F38120D107F0C120D107F06120D107F28
:0B0CF90001120D107F027E00020CA40F
:100CC4008B348A358936AB34AA35A936120B5C606D
:100CD400130536E5367002053514F9120B5CFF1264
:050CE4000D1A80E22260
:03000300020D24C7
:030D2400B2B03238
:100B5C00BB010689828A83E0225002E722BBFE0297
:090B6C00E32289828A83E49322CA
:10080000E5432437F8E60543227834300702783789
:10081000E475F001120BB4020B5C2000EB7F2ED2CA
:10082000008018EF540F2490D43440D4FF30040BD0
:10083000EF24BFB41A0050032461FFE544600215A1
:10084000440547E5477002054630070D7834E475E6
:10085000F001120BB4EF020BA2020C777403D20763
:100860008003E4C207F5438B348A358936E4F544C6
:10087000F546F547E54460077F2012083B80F57593
:1008800045FFC201C200C202C203C205C206C208BD
:10089000120809FF700D3007057F0012084CAF47A2
:1008A000AE4622B4255FC2D5C204120809FF24D087
:1008B000B40A00501A75F00A784430D50508B6FF1E
:1008C0000106C6A426F620D5047002D20380D924DE
:1008D000CFB41A00EF5004C2E5D204020A4CD20190
:1008E00080C6D20080C0D20280BCD2D580BAD205E8
:1008F00080B47F2012083B2002077401B5440040F9
:10090000F1120800FF12083B020874D208D20680D8
:1009100095120800FB120800FA120800F94A4B7001
:1009200006791D7A0B7BFF20022EE544602A7E00AB
:100930008E82758300120B7560060EEE654570F0B1
:10094000C2D5EBC0E0EAC0E0E9C0E0EE120A93D005
:10095000E0F9D0E0FAD0E0FB120B5CFF60AAEBC03C
:10096000E0EAC0E0E9C0E012083BD0E02401F9D0A1
:10097000E03400FAD0E0FBE5450460DCD545D980E1
:10098000877BFF7A0A798FD202809C791080027966
:1009900008C206C2088008D2D5790A8004790AC242
:1009A000D5E545047002F545E4FAFDFEFF120800A6
:1009B000FC7B08200113120800FD7B1030000A1296
:1009C0000800FE120800FF7B20EC3382D592D55040
:1009D00013C3E43000069FFFE49EFEE42001039D64
:1009E000FDE49CFCE4CBF8C201EC700CCFCECDCC86
:1009F000E824F8F870F38017C3EF33FFEE33FEED11
:100A000033FDEC33FCEB33FB994002FB0FD8E9EBF1
:100A1000300105F8D0E0C448B201C0E00AEC4D4E08
:100A20004F78207B0070C2EAB5450040BCC0E012A0
:100A30000A95D0F0D0E0200104C4C0E0C4B201C0E7
:100A4000F0120824D0F0D5F0EB020874120BC409A0
:100A50001153098B5808E24C08DE42098F4F099761
:0F0A60004409974908F743099D550981460981C3
:100A6F00450981470B3D5008E62D08EA2E090D2B4D
:100A7F0008EE23090B200B262A08A64800000905BB
:100A8F003F3F3F00790AA2D5200314300509B91062
:100A9F00020404B9080104A2D52006025001042063
:100AAF0002689202B544005034C0E07F2030031931
:100ABF007F30A20272067205500F120AECC202C2F8
:100ACF0006C205C2087F30800F300503E9C0E0126F
:100ADF00083B300503D0E0F9D0E0B544CC30051722
:100AEF007F30B9100C12083B7F583004077F788095
:100AFF0003B9080312083B3002057F2D02083B7F24
:100B0F00202008F87F2B2006F322920280CF286E38
:100B1F00756C6C2900D2011208003001F8C20178FF
:100B2F004430D50108F60208A62D50434958120843
:100B3F00002403B405004001E4900B389312082CF5
:0D0B4F00743A12082CD20375440402098B7D
:100B7500BB010CE58229F582E5833AF583E0225035
:100B850006E92582F8E622BBFE06E92582F8E2227F
:0D0B9500E58229F582E5833AF583E4932299
:100BA200BB010689828A83F0225002F722BBFE0132
:020BB200F3222C
:100BB400FAE6FB0808E6F925F0F618E6CA3AF62242
:100BC400D083D082F8E4937012740193700DA3A3C0
:100BD40093F8740193F5828883E4737402936860D4
:060BE400EFA3A3A380DFD4
:100C7700EFB40A07740D120C82740A309811A89900
:100C8700B8130CC2983098FDA899C298B811F630DD
:070C970099FDC299F59922B5
:00000001FF
