:03000000020BEA06
:0C0BEA00787FE4F6D8FD758145020C31DF
:100D3E0048483A4D4D3A5353002020202020202081
:100D4E00202020202000253032643A253032643AAB
:050D5E002530326400A5
:090DA80001090C010A0001080018
:060CC800D2A17F027E00B4
:100CCE00E4FDFCC3ED9FEC9E5019758901758CFCFB
:100CDE00758A66D28C308DFDC28CC28D0DBD000121
:030CEE000C80E097
:010CF10022E0
:070DB2007FE87E03020CCE76
:0A0D94008F90C2A0120CC8C2A12269
:0A0D9E008F90D2A0120CC8C2A1224F
:100D80007F38120D947F0C120D947F06120D947F04
:040D900001020D94BB
:100D19008B328A338934AB32AA33A934120B5C6023
:100D2900130534E5347002053314F9120B5CFF1214
:050D39000D9E80E22286
:100D6300E508B43C05E4F508050AE50AB43C05E4E6
:0D0D7300F50A0509E509B41803E4F50922A5
:100C7600120D807F80120D947BFF7A0D793E120D46
:100C8600197FC0120D947BFF7A0D7947120D197FDB
:100C9600C0120D947535FF75360D753754850938B4
:100CA600850A3985083A7B007A00792212085C7B2E
:100CB600007A007922120D19120DB20508120D6381
:020CC60080BFED
:100BF600020C76E493A3F8E493A34003F68001F293
:100C060008DFF48029E493A3F85407240CC8C333FF
:100C1600C4540F4420C8834004F456800146F6DFCE
:100C2600E4800B0102040810204080900DA8E47EA9
:100C3600019360BCA3FF543F30E509541FFEE493C3
:100C4600A360010ECF54C025E060A840B8E493A38A
:100C5600FAE493A3F8E493A3C8C582C8CAC583CAB5
:100C6600F0A3C8C582C8CAC583CADFE9DEE780BE6D
:010DB1000041
:100B5C00BB010689828A83E0225002E722BBFE0297
:090B6C00E32289828A83E49322CA
:10080000E5412435F8E60541227832300702783593
:10081000E475F001120BB4020B5C2000EB7F2ED2CA
:10082000008018EF540F2490D43440D4FF30040BD0
:10083000EF24BFB41A0050032461FFE542600215A3
:10084000420545E5457002054430070D7832E475F0
:10085000F001120BB4EF020BA2020CF27403D207E8
:100860008003E4C207F5418B328A338934E4F542D0
:10087000F544F545E54260077F2012083B80F57599
:1008800043FFC201C200C202C203C205C206C208BF
:10089000120809FF700D3007057F0012084CAF45A4
:1008A000AE4422B4255FC2D5C204120809FF24D089
:1008B000B40A00501A75F00A784230D50508B6FF20
:1008C0000106C6A426F620D5047002D20380D924DE
:1008D000CFB41A00EF5004C2E5D204020A4CD20190
:1008E00080C6D20080C0D20280BCD2D580BAD205E8
:1008F00080B47F2012083B2002077401B5420040FB
:10090000F1120800FF12083B020874D208D20680D8
:1009100095120800FB120800FA120800F94A4B7001
:1009200006791D7A0B7BFF20022EE542602A7E00AD
:100930008E82758300120B7560060EEE654370F0B3
:10094000C2D5EBC0E0EAC0E0E9C0E0EE120A93D005
:10095000E0F9D0E0FAD0E0FB120B5CFF60AAEBC03C
:10096000E0EAC0E0E9C0E012083BD0E02401F9D0A1
:10097000E03400FAD0E0FBE5430460DCD543D980E5
:10098000877BFF7A0A798FD202809C791080027966
:1009900008C206C2088008D2D5790A8004790AC242
:1009A000D5E543047002F543E4FAFDFEFF120800AA
:1009B000FC7B08200113120800FD7B1030000A1296
:1009C0000800FE120800FF7B20EC3382D592D55040
:1009D00013C3E43000069FFFE49EFEE42001039D64
:1009E000FDE49CFCE4CBF8C201EC700CCFCECDCC86
:1009F000E824F8F870F38017C3EF33FFEE33FEED11
:100A000033FDEC33FCEB33FB994002FB0FD8E9EBF1
:100A1000300105F8D0E0C448B201C0E00AEC4D4E08
:100A20004F78207B0070C2EAB5430040BCC0E012A2
:100A30000A95D0F0D0E0200104C4C0E0C4B201C0E7
:100A4000F0120824D0F0D5F0EB020874120BC409A0
:100A50001153098B5808E24C08DE42098F4F099761
:0F0A60004409974908F743099D550981460981C3
:100A6F00450981470B3D5008E62D08EA2E090D2B4D
:100A7F0008EE23090B200B262A08A64800000905BB
:100A8F003F3F3F00790AA2D5200314300509B91062
:100A9F00020404B9080104A2D52006025001042063
:100AAF0002689202B542005034C0E07F2030031933
:100ABF007F30A20272067205500F120AECC202C2F8
:100ACF0006C205C2087F30800F300503E9C0E0126F
:100ADF00083B300503D0E0F9D0E0B542CC30051724
:100AEF007F30B9100C12083B7F583004077F788095
:100AFF0003B9080312083B3002057F2D02083B7F24
:100B0F00202008F87F2B2006F322920280CF286E38
:100B1F00756C6C2900D2011208003001F8C20178FF
:100B2F004230D50108F60208A62D50434958120845
:100B3F00002403B405004001E4900B389312082CF5
:0D0B4F00743A12082CD20375420402098B7F
:100B7500BB010CE58229F582E5833AF583E0225035
:100B850006E92582F8E622BBFE06E92582F8E2227F
:0D0B9500E58229F582E5833AF583E4932299
:100BA200BB010689828A83F0225002F722BBFE0132
:020BB200F3222C
:100BB400FAE6FB0808E6F925F0F618E6CA3AF62242
:100BC400D083D082F8E4937012740193700DA3A3C0
:100BD40093F8740193F5828883E4737402936860D4
:060BE400EFA3A3A380DFD4
:100CF200EFB40A07740D120CFD740A309811A8990A
:100D0200B8130CC2983098FDA899C298B811F63061
:070D120099FDC299F5992239
:00000001FF
