:03000000020800F3
:0C080000787FE4F6D8FD758113020847EC
:0C0956000A083F065B4F666D7D077F6F4F
:10093600E4FDFCC3ED9FEC9E5015E4FBFA0BBB00F7
:0F094600010ABA04F8BBFCF50DBD00010C80E4FA
:01095500227F
:10088C00E4F512F513D2902090237FC87E00120954
:10089C00362090160513E51370020512D39463E508
:1008AC001294004005E4F512F5133090FDAE12AF32
:1008BC00137C007D0A1208E1AB05AE12AF137C006D
:1008CC007D0A1208E174082FF8E6F5B074082BF8CD
:0508DC00E6F5A080B26A
:10080C0002088CE493A3F8E493A34003F68001F26E
:10081C0008DFF48029E493A3F85407240CC8C333ED
:10082C00C4540F4420C8834004F456800146F6DFBC
:10083C00E4800B0102040810204080900956E47EED
:10084C00019360BCA3FF543F30E509541FFEE493B1
:10085C00A360010ECF54C025E060A840B8E493A378
:10086C00FAE493A3F8E493A3C8C582C8CAC583CAA3
:10087C00F0A3C8C582C8CAC583CADFE9DEE780BE5B
:010962000094
:1008E100BC000BBE0029EF8DF084FFADF022E4CCFB
:1008F100F875F008EF2FFFEE33FEEC33FCEE9DECC4
:10090100984005FCEE9DFE0FD5F0E9E4CEFD22ED09
:10091100F8F5F0EE8420D21CFEADF075F008EF2F53
:10092100FFED33FD4007985006D5F0F222C398FD44
:050931000FD5F0EA22E1
:00000001FF
